:020000040800F2
:1000000098060020E1020008E9020008EB0200085F
:10001000ED020008EF020008F102000800000000F5
:10002000000000000000000000000000F3020008D3
:10003000F502000800000000F7020008352E000855
:10004000FB020008FB020008FB020008FB0200089C
:10005000FB020008FB020008FB020008FB0200088C
:10006000FB020008FB020008FB020008FB0200087C
:10007000FB020008FB020008FB020008FB0200086C
:10008000FB020008FB020008FB020008FB0200085C
:1000900015430008FB020008FB020008FB020008F1
:1000A0003D2E00084D350008FB020008FB02000849
:1000B000FB020008FB020008FB020008FB0200082C
:1000C000FB020008FB020008FB020008FB0200081C
:1000D000FB020008FB020008FB020008ED3E0008DE
:1000E000FB020008FB020008FB020008DFF80CD04E
:1000F00004F07CFC00480047992D00089806002079
:100100000CB50020019000906C48006840F48030ED
:100110006A49086000BF6948006800F40030009038
:100120000198401C0190009818B90198B0F5A06F93
:10013000F1D16248006800F4003010B10120009055
:1001400001E0002000900098012843D15C4800683D
:1001500040F010005A4908600846006820F003008B
:1001600008600846006840F0020008605348406894
:10017000524948600846406848600846406840F474
:10018000806048600846406820F47C10486008465B
:10019000406840F4E81048600846006840F080700D
:1001A000086000BF4548006800F000700028F9D0E2
:1001B0004248406820F003004049486008464068D3
:1001C00040F00200486000BF3C48406800F00C006E
:1001D0000828F9D10CBD10B5FFF792FF10BD10B57E
:1001E0003648006840F0010034490860084640681D
:1001F000344908403149486008460068324908409F
:100200002E4908600846006820F4802008600846EF
:10021000406820F4FE0048604FF41F008860FFF73C
:10022000DAFF4FF000602949086010BD10B50021C9
:1002300000200022214B5B6803F00C0121B104294E
:1002400006D0082928D107E0214B224C236027E063
:100250001F4B204C236023E0184B5B6803F47010A5
:10026000164B5B6803F48032022303EB904022B903
:10027000194B4343174C23600DE0104B5B6803F4AC
:10028000003323B1144B4343124C236003E0104B63
:100290004343104C236003E00D4B0E4C236000BF22
:1002A00000BF064B5B68C3F303130C4CE15C094BC6
:1002B0001B68CB40074C236010BD000000100240BB
:1002C000002002400000FFF8FFFFF6FE08ED00E00E
:1002D00000127A000000002000093D000400002008
:1002E0000648804706480047FEE7FEE7FEE7FEE7D0
:1002F000FEE7FEE7FEE7FEE7FEE7FEE7DF010008B8
:10030000ED00000831490143314A1160704770B572
:10031000002100230F22C47804B32D4C246804F478
:10032000E064C4F5E064210AC1F10403CA404478E2
:1003300004FA03F18478144021430901254C06781E
:10034000A155047804F01F050124AC4005786D1117
:10035000AD0005F1E025C5F8004109E0047804F09E
:100360001F050124AC401C4D0678761145F8264047
:1003700070BD1A4A0A400243154B1B1F1A60704792
:1003800039B1134A121D12680243114B1B1D1A602A
:1003900006E00F4A121D126882430D4B1B1D1A60A6
:1003A0007047042808D14FF0E021096941F00401A9
:1003B0004FF0E022116107E04FF0E021096921F0E0
:1003C00004014FF0E0221161704700000000FA05BF
:1003D0000CED00E000E400E080E100E080FFFF1FA2
:1003E00010B50446FA48844208D10121401501F0B5
:1003F00077FB0021601501F073FB17E0F54884429C
:1004000008D10121001501F06BFB0021201501F03E
:1004100067FB0BE0F048844208D10121C80301F0DA
:100420005FFB00214FF4004001F05AFB10BD30B5D6
:100430000246002000235068E84C20400D790C68EB
:1004400044EA0524204350609068E54C2040D1E9FF
:1004500002542C434D7944EA450420439060D06A0D
:1004600020F470000C7C641EE4B2234340EA035085
:10047000D06230BD00210160017141718160C160B5
:1004800001210174704721B1826842F0010282604B
:1004900003E0826822F001028260704721B1826825
:1004A00042F48072826003E0826822F4807282608B
:1004B000704710B50023CBB21AB144681C434460A6
:1004C00002E044689C43446010BD816841F008012B
:1004D00081607047014600208A6802F008020AB174
:1004E000012000E000207047816841F00401816034
:1004F0007047014600208A6802F004020AB1012018
:1005000000E00020704721B1826842F4A0028260BE
:1005100003E0826822F4A002826070470146002056
:100520008A6802F480020AB1012000E000207047CE
:1005300010B50A4600210023416821F46041531E92
:1005400041EA4331416010BD21B1426842F400628A
:10055000426003E0426822F4006242607047F0B5F6
:1005600004460D4600200021092D11DDE068A5F1AB
:100570000A0606EB4607072606FA07F18843A5F1A7
:100580000A0606EB460603FA06F10843E0600CE0B3
:10059000206905EB4507072606FA07F1884305EBB6
:1005A000450603FA06F108432061072A0FDA606B5B
:1005B000561E06EB86071F2606FA07F18843561ECD
:1005C00006EB860605FA06F10843606322E00D2A71
:1005D0000FDA206BD61F06EB86071F2606FA07F1F7
:1005E0008843D61F06EB860605FA06F1084320630A
:1005F00010E0E06AA2F10D0606EB86071F2606FA58
:1006000007F18843A2F10D0606EB860605FA06F10E
:100610000843E062F0BD21B1826842F4801282603A
:1006200003E0826822F48012826070470146C86C41
:1006300080B2704766484C300068704721B142680C
:1006400042F48062426003E0426822F480624260C9
:10065000704721B1426842F48052426003E0426830
:1006600022F48052426070470A460021816821F4DA
:10067000E04111438160704721B1826842F4004239
:10068000826003E0826822F400428260704721B1F8
:10069000826842F40212826003E0826822F402124D
:1006A00082607047014600208A6802F400120AB195
:1006B000012000E000207047F0B5044615460020F8
:1006C00000220026092911DDE068A1F10A0707EBE5
:1006D000470C072707FA0CF29043A1F10A0707EB32
:1006E000470703FA07F21043E0600CE0206901EBD2
:1006F000410C072707FA0CF2904301EB410703FA7C
:1007000007F210432061A06BC0F30156EF1C06F105
:10071000010CA7EB0C0707EB870C1F2707FA0CF25D
:100720009043EF1C06F1010CA7EB0C0707EB8707C2
:1007300001FA07F21043A063F0BD10B50A4600218C
:100740000023816B21F44011531E41EA0351816360
:1007500010BD08B5002300930090009B0B4400934C
:10076000009B1A6008BD08B5024600200090009268
:1007700001F12800009B184400900098006880B2A6
:1007800008BD0A4600214168164B194011434160DB
:1007900070474162826270470A460021416821F039
:1007A0001F0111434160704740B109490831096890
:1007B00041F40001064A0832116007E0044908319B
:1007C000096821F40001024A0832116070470000F4
:1007D0000024014000280140003C0140FFFEF0FFE2
:1007E000FDF7F1FFFFFD3FFF0246002013680B40BD
:1007F0000BB1012000E000207047CA43026070473F
:1008000070B502460020002300240B125568CEB2BA
:1008100005EA060415681D4015B10CB1012000E081
:10082000002070BD00220A12D3430360704700000D
:1008300010B50446FE48844209D10121480601F062
:100840005CF900214FF0007001F057F908E0012138
:10085000880601F052F900214FF0806001F04DF957
:1008600010BD30B5024600200023146824F00204B5
:100870001460146844F00104146000E05B1C5468C8
:1008800004F001041CB94FF6FF74A342F6D154687A
:1008900004F001040CB900206CE08C79012C04D127
:1008A000146844F08004146003E0146824F08004A9
:1008B0001460CC79012C04D1146844F04004146015
:1008C00003E0146824F0400414600C7A012C04D175
:1008D000146844F02004146003E0146824F0200439
:1008E00014604C7A012C04D1146844F01004146094
:1008F00003E0146824F0100414608C7A012C04D1F5
:10090000146844F00804146003E0146824F0080438
:100910001460CC7A012C04D1146844F004041460EF
:1009200003E0146824F0040414608C78A407CD78E4
:1009300044EA05640D7944EA05444D7944EA0554D6
:100940000D886D1E2C43D461146824F001041460DA
:10095000002300E05B1C546804F001041CB14FF656
:10096000FF74A342F6D1546804F001040CB10020D6
:1009700000E0012030BD10B50021837A012202FA87
:1009800003F1AC4A126842F00102AA4B1A60A94A6C
:100990001C3212688A43A74B1C331A60027BCAB907
:1009A000A44A0C3212688A43A24B0C331A60428864
:1009B000C38842EA03439F4A4032847A42F8343083
:1009C0000288838842EA03439A4A4032847A02EBDF
:1009D000C4025360027B012A19D1964A0C32126874
:1009E0000A43944B0C331A604288038842EA03435B
:1009F000904A4032847A42F83430C288838842EA8E
:100A000003438C4A4032847A02EBC4025360C27AB8
:100A10003AB9884A121D12688A43864B1B1D1A6018
:100A200006E0844A121D12680A43824B1B1D1A609D
:100A3000028932B97F4A143212688A437D4B1433DB
:100A40001A600289012A06D17A4A143212680A43CE
:100A5000784B14331A60427B012A06D1754A1C3246
:100A600012680A43734B1C331A60724A126822F0F0
:100A70000102704B1A6010BD00218171C1710172B9
:100A800041728172C1728170C170032101710221B2
:100A900041710121018070476649096841F00101F7
:100AA000644A11601146096843F60E729143614A27
:100AB00011601146096841EA002111601146096878
:100AC00021F001011160704721B1026842F48032C7
:100AD000026003E0026822F4803202607047E1B1F4
:100AE000026842F0800202604FF4C272125842F46F
:100AF00080734FF4C27213504FF4CA72125842F40A
:100B000080734FF4CA7213504FF4D272125842F4E9
:100B100080734FF4D27213501BE0026822F08002FF
:100B200002604FF4C272125822F480734FF4C27202
:100B300013504FF4CA72125822F480734FF4CA72E1
:100B400013504FF4D272125822F480734FF4D272C1
:100B50001350704710B502460020936803F080637D
:100B6000B3F1806F00D110E0936803F00063B3F13C
:100B7000006F01D1012008E0936803F08053B3F1C6
:100B8000805F01D1022000E00420042879D002F522
:100B9000C07303EB00131B6803F0010402F5C0737C
:100BA00003EB00131C600B7A7BB94B7A0C8843EA89
:100BB000445302F5C07404EB00142468234302F587
:100BC000C07404EB0014236010E00B7A4C6843EA15
:100BD000C4034C7A234302F5C07404EB0014246868
:100BE000234302F5C07404EB001423608B7A03F0F6
:100BF0000F038B7202F5C07303EB00135B6823F0E5
:100C00000F0402F5C07303EB00135C6002F5C073C0
:100C100003EB00135B688C7A234302F5C07404EB8A
:100C2000001463608B7B1C064B7B44EA034403E0A7
:100C300000640040006600400B7B44EA0323CC7A4A
:100C4000234302F5C07404EB0014A3608B7C1C06E4
:100C50004B7C44EA03440B7C44EA0323CC7B2343D0
:100C600002F5C07404EB0014E36002F5C07303EBFB
:100C700000131B6843F0010402F5C07303EB00137B
:100C80001C6010BD10B50246002321B1012907D018
:100C900002290FD109E09068F94C00EA04030BE047
:100CA0009068F84C00EA040306E09068F64C00EA0D
:100CB000040301E0002300BF00BFF44C181BA34253
:100CC00016D007DC83B16FF08060184470B1022841
:100CD00018D111E0B0F5007F10D0ED4C204448B1A0
:100CE000B0F5003F0ED10BE002230DE000230BE036
:100CF000002309E0002307E0012305E0012303E0CE
:100D0000012301E0002300BF00BFD8B210BD21B114
:100D1000012907D002290FD109E0826842F0800240
:100D200082600AE0826842F40042826005E08268E4
:100D300042F40002826000E000BF00BF704710B5BF
:100D400000F5D87303EB01131B6803F0040313725F
:100D5000137A53B900F5D87303EB01131B6840F203
:100D6000FF7404EA5353136009E000F5D87303EBF2
:100D700001131B686FF0604404EAD303536000F56D
:100D8000D87303EB01131B6803F00203537200F5E1
:100D9000D87303EB01135B6803F00F03937200F544
:100DA000D87303EB01135B681B0AD37400F5D87387
:100DB00003EB01139B68D37200F5D87303EB0113A7
:100DC0009B681C0A147300F5D87303EB01139B682E
:100DD0001C0C547300F5D87303EB01139B681B0EB6
:100DE000937300F5D87303EB0113DB68D37300F53D
:100DF000D87303EB0113DB681C0A147400F5D87375
:100E000003EB0113DB681C0C547400F5D87303EB7F
:100E10000113DB681B0E937421B9C36843F02003F0
:100E2000C36003E0036943F02003036110BD21B9EF
:100E3000C26842F02002C26003E0026942F0200270
:100E4000026170470246002019B9D36803F003001D
:100E500006E0012903D1136903F0030000E000203C
:100E6000704710B502460B4600204FF6FF71BBB924
:100E7000146824F0020444F00104146000E0491EE8
:100E8000546804F00304012C01D00029F7D1546800
:100E900004F00304012C01D0002032E0012030E0F6
:100EA000012B13D1146824F00304146000E0491EE0
:100EB000546804F003040CB10029F8D1546804F01C
:100EC00003040CB100201CE001201AE0022B17D112
:100ED000146824F0010444F00204146000E0491E88
:100EE000546804F00304022C01D00029F7D154689F
:100EF00004F00304022C01D0002002E0012000E0F5
:100F0000002010BD014600200A6822F0010242F0D4
:100F100002020A604A6802F00302022A00D101209C
:100F2000704701464FF6FF7200200B6823F0020362
:100F30000B6000E0521E4B6803F00203022B01D14C
:100F4000002AF7D14B6803F00203022B00D00120E6
:100F50007047014600208A6902F070007047014620
:100F600000208A69100E7047014600208A69C2F38A
:100F7000074070471AB143690B43436102E043697C
:100F80008B434361704710B50246002001F47003A3
:100F900043B19369C1F3130423400BB101202DE049
:100FA00000202BE001F0807343B15368C1F31304B8
:100FB00023400BB1012021E000201FE001F000637D
:100FC00043B19368C1F3130423400BB1012015E032
:100FD000002013E001F0007343B1D368C1F31304A0
:100FE00023400BB1012009E0002007E01369C1F3A1
:100FF000130423400BB1012000E0002010BD0022AB
:10100000244B994202D10023836111E0C1F3130202
:1010100001F000730BB1C2600AE001F080630BB114
:10102000026105E001F000630BB1826000E0426004
:1010300070470246002002EA01030BB1012000E0E4
:101040000020704770B504460D46002660692840B0
:10105000002872D0B5F5807F69D01DDC082D42D004
:1010600006DC012D2DD0022D31D0042D7FD134E0AE
:10107000102D3ED0202D42D0402D78D145E00000EB
:101080000300000400030008000003100001000832
:101090000001FFF77000F030B5F5004F61D009DCBA
:1010A000B5F5007F4AD0B5F5806F4DD0B5F5006F2E
:1010B0005DD150E0B5F5803F2DD0B5F5003F56D15C
:1010C0002FE0A0685549FFF7B4FF064651E0E068FD
:1010D0000321FFF7AEFF06464BE0E0680821FFF76B
:1010E000A8FF064645E0E0681021FFF7A2FF06468C
:1010F0003FE020690321FFF79CFF064639E02069A5
:101100000821FFF796FF064633E020691021FFF71C
:1011100090FF06462DE060680821FFF78AFF06462B
:1011200027E060681021FFF784FF064621E0A069F0
:101130000121FFF77EFF06461BE01BE0A0690221AC
:10114000FFF777FF064614E0A0690421FFF771FF5F
:1011500006460EE00BE0A0697021FFF76AFF064625
:1011600007E060680421FFF764FF064601E00026FF
:1011700000BF00E00026304670BDB1F5007F3AD0D8
:101180000FDC202928D006DC01291CD004291DD021
:10119000082940D11DE0402921D0B1F5807F3AD106
:1011A00026E0B1F5004F31D006DCB1F5806F25D0D7
:1011B000B1F5006F2FD124E0B1F5803F12D0B1F529
:1011C000003F28D111E0154A826025E00822C26064
:1011D00022E01022C2601FE0082202611CE01022FF
:1011E000026119E00822426016E01022426013E01A
:1011F0000422426010E0042242600DE004224260BA
:101200000AE0002282610422426005E0002282613D
:101210000422426000E000BF00BF704701010100EE
:1012200001684FF6FE7211400160002101604160CB
:101230008160C1608D49884208D18C49083949686C
:1012400041F00F01894A083A51608AE08749143118
:10125000884208D185490839496841F0F001834A3C
:10126000083A51607DE081492831884208D17F49A0
:101270000839496841F470617C4A083A516070E06D
:101280007A493C31884208D178490839496841F4A3
:101290007041764A083A516063E07449503188429F
:1012A00008D172490839496841F470216F4A083AF7
:1012B000516056E06D496431884208D16B49083964
:1012C000496841F47001694A083A516049E0674948
:1012D0007831884208D165490839496841F0706120
:1012E000624A083A51603CE06149884206D1011FD8
:1012F000096841F00F01021F116032E05C491431AE
:10130000884208D15A49091F096841F0F001584A3A
:10131000121F116025E056492831884208D15449EE
:10132000091F096841F47061514A121F116018E0E9
:101330004F493C31884208D14D49091F096841F4A1
:1013400070414B4A121F11600BE0494950318842ED
:1013500007D14749091F096841F47021444A121F07
:101360001160704710B50022026847F6F0739A4387
:101370000C6A8B6823430C6923434C6923438C69B3
:101380002343CC6923434C6A23438C6A23431A4387
:101390000260CB6843600B6883604B68C36010BD1C
:1013A0000021016041608160C16001614161816132
:1013B000C161016241628162704721B1026842F0FD
:1013C0000102026004E002684FF6FE731A400260F8
:1013D00070471AB103680B43036002E003688B4354
:1013E00003607047416070470146486880B27047AB
:1013F00001460020002201F080531BB11C4B083B2A
:101400001A6802E0194B083B1A6802EA01030BB1A3
:10141000012000E00020704700F0805119B114490C
:10142000091F086002E01149083948607047014609
:101430000020002201F080531BB10D4B083B1A68BD
:1014400002E00A4B083B1A6802EA01030BB10120D3
:1014500000E00020704700F0805119B10449091FD5
:10146000086002E0014908394860704708000240FE
:101470000804024010B50446CC48844208D101213A
:10148000042000F02DFB0021042000F029FB46E0A1
:10149000C748844208D10121082000F021FB002127
:1014A000082000F01DFB3AE0C248844208D1012127
:1014B000102000F015FB0021102000F011FB2EE0A1
:1014C000BD48844208D10121202000F009FB002101
:1014D000202000F005FB22E0B848844208D1012119
:1014E000402000F0FDFA0021402000F0F9FA16E05B
:1014F000B348844208D10121802000F0F1FA002194
:10150000802000F0EDFA0AE0AE48844207D10121C4
:10151000801500F0E5FA0021A01500F0E1FA10BDF9
:1015200010B50121084600F0DBFA0021012000F08F
:10153000D7FA10BD2DE9F041024600250026002013
:1015400000230024002791F803C00CF00F0591F848
:1015500003C00CF0100CBCF1000F03D091F802C0D6
:101560004CEA050591F800C0BCF1000F31D01468B9
:1015700000202BE04FF0010C0CFA00F3B1F800C092
:101580000CEA03069E4220D183004FF00F0C0CFAA8
:1015900003F7BC4305FA03FC4CEA040491F803C0CA
:1015A000BCF1280F06D14FF0010C0CFA00FCC2F878
:1015B00014C00AE091F803C0BCF1480F05D14FF008
:1015C000010C0CFA00FCC2F810C0401C0828D1D352
:1015D0001460B1F800C0BCF1FF0F34DD5468002086
:1015E0002EE000F1080C4FF0010808FA0CF3B1F8F6
:1015F00000C00CEA03069E4221D183004FF00F0C7D
:101600000CFA03F7BC4305FA03FC4CEA040491F816
:1016100003C0BCF1280F05D100F1080C08FA0CF842
:10162000C2F8148091F803C0BCF1480F07D100F153
:10163000080C4FF0010808FA0CF8C2F81080401CA2
:101640000828CED35460BDE8F0814FF6FF710180C9
:10165000022181700421C170704702460020936806
:101660000B400BB1012000E0002070470146886864
:1016700080B2704702460020D3680B400BB10120B6
:1016800000E0002070470146C86880B270470161E1
:101690007047416170470AB1016100E041617047E4
:1016A000C16070474FF480320A4382618161826178
:1016B00082698269704702460020434B18684FF6E2
:1016C0008073184040EA021008433F4B186070478F
:1016D0003E49C8617047F0B50A4600230024002146
:1016E000002500F00046B6F1004F02D1364EF169F8
:1016F00001E0354E7168C0F3034583B200F4401633
:10170000B6F5401F08D121F070612F4E766826F0A3
:1017100070662D4F7E6012E000F48016B6F5801FD3
:1017200006D1032606FA05F4A14341F0706106E0F4
:10173000460D360103FA06F6B14341F0706122B15D
:10174000460D360103FA06F6314300F00046B6F1C5
:10175000004F02D11C4EF16101E01B4E7160F0BDE3
:1017600030B500228B071C0F0F2303FA04F2164B2F
:1017700008338C1053F824309343134C08348D10E5
:1017800044F8253023468C1053F824308C07240F5E
:1017900000FA04F423430C4C08348D1044F825302F
:1017A00030BD0A49DC310860704700000008014084
:1017B000000C0140001001400014014000180140DD
:1017C000001C0140002001400000014000002042B8
:1017D000DF48006840F00100DD49086008464068C5
:1017E000DC490840DA49486008460068DA490840A0
:1017F000D74908600846006820F480200860084641
:10180000406820F4FE0048604FF41F008860704775
:10181000CF49096821F48031CD4A11601146096829
:1018200021F480211160B0F5803F03D0B0F5802F06
:101830000ED106E0C649096841F48031C44A1160FE
:1018400007E0C349096841F4A021C14A116000E0E2
:1018500000BF00BF704710B50146002200230020E2
:101860004A11012A02D1BA4C236806E0022A02D1A9
:10187000B74C236A01E0B64C636A01F01F020124F1
:1018800094401C400CB1012000E0002010BD38B590
:10189000002000900024002500BF3120FFF7DBFF6F
:1018A00005460098401C00900098B0F5A06F01D04C
:1018B000002DF2D03120FFF7CEFF08B1012400E067
:1018C0000024204638BD01460020A14A106820F0BF
:1018D000F80040EAC10010607047A04908607047F6
:1018E000024600209A4B586820F47C1042EA01031B
:1018F0001843974B586070479849086670470146EF
:101900000020934A506820F003000843506070475D
:101910008F48406800F00C007047014600208C4A58
:10192000506820F0F00008435060704701460020E6
:10193000874A506820F4E0600843506070470146D1
:101940000020834A506820F4605040EAC100506093
:10195000704729B17E4A527A02437D4B5A7204E0A5
:101960007B4A527A82437A4B5A7270477B49D8310C
:101970000860704701460020754A506820F44040D6
:101980000843506070470021714A20321170704A3C
:1019900082F82010012802D004280AD104E0012195
:1019A0006B4A2032117005E00521694A203211701E
:1019B00000E000BF00BF7047694908607047644994
:1019C000096A0143624A11627047654944390860F7
:1019D000704730B500210022002400235C4D6D6863
:1019E00005F00C0121B1042905D0082923D105E017
:1019F0005C4D056022E05B4D05601FE0544D6D6855
:101A000005F47012524D6D6805F48034022505EB23
:101A100092421CB9544D554305600BE04C4D6D6826
:101A200005F400351DB1504D5543056002E04D4DA4
:101A30005543056002E04B4D056000BF00BF444DBB
:101A40006D6805F0F0010909484D6B5C0568DD40E3
:101A500045603F4D6D6805F4E061090A434D6B5CDC
:101A60004568DD4085603A4D6D6805F46051C90AEE
:101A70003E4D6B5C4568DD40C560354D6D6805F4D5
:101A80004041890B3A4D6B5CC568B5FBF3F50561C8
:101A900030BD29B12E4A526902432D4B5A6104E0F0
:101AA0002B4A526982432A4B5A61704729B1284A0E
:101AB00092690243264B9A6104E0254A9269824367
:101AC000234B9A61704729B1214AD2690243204BC6
:101AD000DA6104E01E4AD26982431D4BDA61704725
:101AE00029B11B4AD2680243194BDA6004E0184A54
:101AF000D2688243164BDA60704729B1144A1269E2
:101B00000243134B1A6104E0114A12698243104BDD
:101B10001A61704712494039086070470F49C8641C
:101B200070470B49C87170470948406A40F080709F
:101B300007494862704701460020054A92680A40FA
:101B40000AB1012000E00020704701498872704707
:101B5000001002400000FFF8FFFFF6FE00004242C6
:101B60008004424200127A0000093D001400002067
:101B70002400002010B50446FE48844208D101210B
:101B8000C014FFF7ADFF0021E014FFF7A9FFC4E088
:101B9000B4F1804F08D101210846FFF7AEFF0021C4
:101BA0000120FFF7AAFFB8E0F348844208D10121E1
:101BB0000220FFF7A2FF00210220FFF79EFFACE00A
:101BC000EE48844208D101210420FFF796FF00214E
:101BD0000420FFF792FFA0E0E948844208D10121E8
:101BE0000820FFF78AFF00210820FFF786FF94E016
:101BF000E448844208D101211020FFF77EFF002134
:101C00001020FFF77AFF88E0DF48844208D10121E5
:101C10002020FFF772FF00212020FFF76EFF7CE0FD
:101C2000DA48844208D101214014FFF759FF00210E
:101C30006014FFF755FF70E0D548844209D10121B7
:101C4000C804FFF74DFF00214FF40020FFF748FFC5
:101C500063E0D048844209D101210805FFF740FF25
:101C600000214FF48010FFF73BFF56E0CA48844242
:101C700009D101214805FFF733FF00214FF400107F
:101C8000FFF72EFF49E0C548844208D101214020DA
:101C9000FFF733FF00214020FFF72FFF3DE0C04852
:101CA000844208D101218020FFF727FF00218020F6
:101CB000FFF723FF31E0BB48844208D101218015A2
:101CC000FFF71BFF0021A015FFF717FF25E0B6481F
:101CD000844209D101210804FFF702FF00214FF4DB
:101CE0008030FFF7FDFE18E0B048844209D10121A1
:101CF0004804FFF7F5FE00214FF40030FFF7F0FE37
:101D00000BE0AB48844208D101218804FFF7E8FECC
:101D100000214FF48020FFF7E3FE10BD002202886F
:101D2000944B98420ED0994B98420BD0B0F1804F13
:101D300008D0914B984205D0904B984202D0904BDE
:101D4000984204D14FF68F731A404B881A438D4B3B
:101D5000984207D08C4B984204D04FF6FF431A406C
:101D6000CB881A4302808B8883850B880385814B3F
:101D700098420BD0854B984208D08B4B984205D0A7
:101D80008A4B984202D08A4B984201D10B7A038643
:101D900001238382704770B5002400220023058C44
:101DA0004FF6FE7635400584028C8388048B4FF60F
:101DB0008F752C40B51E2C400D882C43751E2A4073
:101DC0000D892A434D882A436A4DA8420BD06F4D96
:101DD000A84208D0744DA84205D0744DA84202D044
:101DE000734DA84213D14FF6F7752A404D892A4307
:101DF0004FF6FB752A408D882A434FF6FF652B402E
:101E00004FF6FF552B408D892B43CD892B43838083
:101E10000483CD888586028470BD70B500240022BD
:101E20000023058C4FF6EF7635400584028C8388BD
:101E3000048B48F6FF752C404FF6FF452C400D886B
:101E40004FF6FF7606EA05252C434FF6DF752A404C
:101E50000D8906EA05152A434D8806EA05152A4329
:101E6000444DA84202D0494DA8421DD14FF67F757E
:101E70002A404D894FF6FF7606EA05152A434FF6AC
:101E8000BF752A408D8806EA05152A434FF6FF35AF
:101E90002B404FF2FF752B408D8906EA85052B43B9
:101EA000CD8906EA85052B4383800483CD88058789
:101EB000028470BD70B5002400220023058C4FF60B
:101EC000FF6635400584028C8388848B4FF68F75BE
:101ED0002C404FF6FC752C400D882C434FF6FF55D7
:101EE0002A400D894FF6FF7606EA05252A434D88DC
:101EF00006EA05252A431F4DA84202D0234DA842D9
:101F00001DD14FF2FF752A404D894FF6FF7606EA44
:101F100005252A434FF6FF352A408D8806EA052518
:101F20002A434EF6FF752B404DF6FF752B408D89E9
:101F300006EA05152B43CD8906EA05152B43838058
:101F40008483CD888587028470BD70B5002200230C
:101F50000024058C4EF6FF7635400584038C84887A
:101F6000828B48F6FF752A404FF6FF452A400D88C0
:101F700020E00000002C0140000400400008004068
:101F8000000C0040001000400014004000340140EC
:101F9000004C014000500140005401400018004036
:101FA000001C00400020004000400140004401406F
:101FB000004801404FF6FF7606EA05252A434DF614
:101FC000FF752B400D8906EA05352B434D8806EA3F
:101FD00005352B43FA4DA84202D0FA4DA84208D14C
:101FE0004BF6FF752C408D894FF6FF7606EA851576
:101FF0002C4384808283CD88A0F84050038470BD38
:10200000828B4FF2FF331A408283828B4FF6FF732D
:1020100003EA01231A4382837047F0B50C46154644
:10202000002200210026078C4EF6FF7C07EA0C07F1
:102030000784828B018C4FF6FF7707EA043640F65F
:10204000FF473A404FF6FF7707EA05273A434FF636
:10205000FF7707EA03373A43D94FB8420ED0D94F3A
:10206000B8420BD0B0F1804F08D0D74FB84205D05E
:10207000D64FB84202D0D64FB84206D14DF6FF77C0
:10208000394046F48057394305E047F6FF57394059
:1020900044F48057394382830184F0BD828B4FF62C
:1020A000F3731A408283828B0A4382837047F0B5B0
:1020B0000C461546002200210026078C4FF6FF6CC7
:1020C00007EA0C070784828B018C4FF6FF7707EA3B
:1020D00004264FF60C773A404FF6FF7707EA0317CE
:1020E0002F433A43B64FB8420ED0B64FB8420BD04A
:1020F000B0F1804F08D0B44FB84205D0B34FB842CA
:1021000002D0B34FB84206D14FF6FF57394046F4DC
:102110008077394305E04FF2FF57394044F4807728
:10212000394382830184F0BD028B4FF2FF331A40A2
:102130000283028B4FF6FF7303EA01231A430283E3
:102140007047F0B50C461546002200210026078C8A
:102150004FF6EF7C07EA0C070784028B018C4FF6E1
:10216000FF7707EA041640F6FF473A404FF6FF773D
:1021700007EA03373A434FF6FF7707EA05273A4362
:102180008F4FB8420ED08F4FB8420BD0B0F1804F76
:1021900008D08D4FB84205D08C4FB84202D08C4F3A
:1021A000B84206D14FF6DF77394046F01007394381
:1021B00005E04FF65F77394044F01007394302835A
:1021C0000184F0BD028B4FF6F3731A400283028B39
:1021D0000A4302837047F0B50C46154600220021E1
:1021E000068C4FF6FE773E400684028B018C4FF63C
:1021F0000C7632407E1C06EA03162E433243704EA4
:10220000B0420ED06F4EB0420BD0B0F1804F08D02C
:102210006D4EB04205D06D4EB04202D06C4EB04211
:1022200006D14FF6FD76314044F00106314305E01A
:102230004FF6F576314044F00106314302830184C4
:10224000F0BD70B505460C465D4885420ED05D4830
:1022500085420BD0B5F1804F08D05B48854205D050
:102260005A48854202D05A48854200D100E000BF5A
:10227000208850B92389A28861882846FFF7ABFFE0
:10228000E1882846FFF79EFF25E0208804280AD130
:102290002389A28861882846FFF753FFE1882846F2
:1022A000FFF742FF17E0208808280AD12389A28877
:1022B00061882846FFF7FBFEE1882846FFF7EEFE1F
:1022C00009E02389A28861882846FFF7A6FEE188F5
:1022D0002846FFF795FE70BD2DE9F04105460C46F6
:1022E00000260127608808B9022600E00026A088A1
:1022F000012801D1022700E001272088A0B9238905
:10230000A28861882846FFF766FFE1882846FFF724
:1023100059FF23893A4631462846FFF712FFE188E4
:102320002846FFF701FF13E02389A2886188284629
:10233000FFF707FFE1882846FFF7F6FE23893A46B4
:1023400031462846FFF747FFE1882846FFF73AFF66
:10235000BDE8F0810A884B881A438B881A43CB88E2
:102360001A430B891A434B891A438B891A43A0F8E5
:10237000442070474FF6FF71818000210180C180A9
:102380004180017270470021018041808180C180BD
:10239000018141818181C18170470021018041809B
:1023A000012181800021C1800181704700210180CD
:1023B00041808180C180018141818181704700001D
:1023C000002C01400034014000040040000800409F
:1023D000000C004021B1028842F00102028004E0BA
:1023E00002884FF6FE731A400280704731B1B0F890
:1023F000442042F40042A0F8442005E0B0F8442014
:10240000C2F30E02A0F8442070471AB183890B432F
:10241000838102E083898B43838170478182704787
:1024200041EA0203A0F8483070471AB183890B4390
:10243000838102E083898B438381704701894FF652
:10244000F8721140018170470A46002101894FF658
:102450008F73194011430181704730B504460D4612
:1024600029462046FFF7F0FF208940F00700208131
:1024700030BD2DE9F04104460D4616461F46602D3D
:1024800006D13B46012231462046FFF75AFE05E0C1
:102490003B46012231462046FFF79DFE2946204655
:1024A000FFF7D2FF208940F007002081BDE8F081CE
:1024B00030B50C4600210189C9B24FF6FF7505EA17
:1024C0000325154325432943018130BD2DE9F04102
:1024D00005460E4617469846002443463A4631467E
:1024E0002846FFF7E5FF2C894FF6F870044044F0CA
:1024F00007044FF68F70044044F070042C81BDE84F
:10250000F081F0B504460D4616461F463B4632465E
:1025100029462046FFF7CCFF208940F480402081E7
:10252000F0BD0185828270470A46002101884FF67E
:102530008F731940114301807047F0B50C46154662
:102540001E460021002200230189028B038C4FF6D6
:10255000F877394021434FF6FC473A4040F20117E3
:102560003A434FF6DD773B404FF6FF7707EA061711
:102570002F433B43018102830384F0BD0A460021BF
:10258000018B4FF68F7319401143018370470A4640
:102590000021018B48F6FF7319404FF6FF7303EAE1
:1025A00002231943018370470A460021818B4FF6AD
:1025B0008F7319401143818370470A460021818B34
:1025C00048F6FF7319404FF6FF7303EA02231943DD
:1025D0008183704721B1028842F08002028004E0CA
:1025E00002884FF67F731A400280704721B18288BB
:1025F00042F00402828004E082884FF6FB731A40A6
:102600008280704721B1828842F00802828004E013
:1026100082884FF6F7731A408280704721B1828812
:1026200042F00102828004E082884FF6FE731A4075
:10263000828070470A460021018B4FF6F7731940DC
:102640001143018370470A460021018B4FF2FF734B
:1026500019404FF6FF7303EA0223194301837047C1
:102660000A460021818B4FF6F7731940114381838D
:1026700070470A460021818B4FF2FF7319404FF6D5
:10268000FF7303EA02231943818370470A4600213E
:10269000018B4FF6FB7319401143018370470A46C3
:1026A0000021018B4FF6FF3319404FF6FF7303EA09
:1026B00002231943018370470A460021818B4FF69C
:1026C000FB7319401143818370470A460021818BB7
:1026D0004FF6FF3319404FF6FF7303EA0223194305
:1026E000818370470A460021018B4FF67F731940A2
:1026F0001143018370470A460021018BC1F30E018B
:102700004FF6FF7303EA02231943018370470A4619
:102710000021818B4FF67F731940114381837047ED
:102720000A460021818BC1F30E014FF6FF7303EAC5
:1027300002231943818370470A460021018C4FF61A
:10274000FD7319401143018470470A460021018C32
:102750004FF6F77319401143018470470A46002170
:10276000018C4FF6DF7319404FF6FF7303EA021333
:102770001943018470470A460021018C4FF67F738C
:1027800019404FF6FF7303EA02131943018470479F
:102790000A460021018C4FF6FF5319404FF6FF7394
:1027A00003EA02231943018470470A460021018C81
:1027B0004FF2FF7319404FF6FF7303EA02231943E8
:1027C000018470470A460021018C4DF6FF731940C1
:1027D0004FF6FF7303EA023319430184704730B5A3
:1027E000002301248C40A3B2048C9C430484048CF9
:1027F00002FA01F5ADB22C43048430BD30B500239C
:1028000004248C40A3B2048C9C430484048C02FAFC
:1028100001F5ADB22C43048430BD70B503460020F1
:1028200000241846183001258D40ACB21D8CA543FC
:102830001D8409B1082909D100EB6100056825F064
:10284000700505600568154305600EE00D1FC5F3B2
:102850004E052844056825F4E045056005684FF6F7
:10286000FF7606EA02263543056070BD21B1028875
:1028700042F00202028004E002884FF6FD731A4023
:102880000280704721B1028842F00402028004E015
:1028900002884FF6FB731A400280704721B182888C
:1028A00042F08002828004E082884FF67F731A40F3
:1028B0008280704702884FF6F7731A4002800288C0
:1028C0000A430280704782884FF68F731A408280D5
:1028D00082880A438280704702894FF6F8731A4053
:1028E000028102890A430281704702894FF67F7391
:1028F0001A40028102890A4302817047818470472D
:10290000818570478186704701877047818770474E
:10291000A0F84010704702884FF6FF431A4002802B
:1029200002880A43028070470146888E704701463C
:10293000088F70470146888F70470146B1F8400004
:1029400070470146888C70470146088D70470246E3
:102950000020138A0B400BB1012000E000207047DB
:10296000CA430282704730B502460020002300248B
:10297000158A05EA0103958905EA010413B10CB132
:10298000012000E0002030BDCA43028270470000F1
:1029900010B50446FB48844209D101218803FFF7A2
:1029A0009FF800214FF48040FFF79AF832E0F64894
:1029B000844209D101214804FFF79FF800214FF418
:1029C0000030FFF79AF825E0F048844209D1012150
:1029D0008804FFF792F800214FF48020FFF78DF86C
:1029E00018E0EB48844209D10121C804FFF785F8BB
:1029F00000214FF40020FFF780F80BE0E548844207
:102A000008D101210805FFF778F800214FF4801064
:102A1000FFF773F810BD2DE9F04786B005460E4666
:102A20000024A24600BFA1460027B08900B100BF24
:102A30002F462C8A4CF6FF700440F08804432C8209
:102A4000AC894EF6F3100440B0883189084371898F
:102A500008430443AC81AC8A4FF6FF400440B08980
:102A60000443AC8201A8FEF7B4FFC648874202D1F6
:102A7000DDF810A001E0DDF80CA0A88900F400400A
:102A800040B10AEBCA0000EB0A1031684900B0FB04
:102A9000F1F807E00AEBCA0000EB0A103168890080
:102AA000B0FBF1F86420B8FBF0F0040120096421C8
:102AB00001FB1089A88900F4004040B1322000EBEE
:102AC000C900B0FBF1F000F00700044308E0322039
:102AD00000EB09106421B0FBF1F000F00F0004439B
:102AE0002C8106B0BDE8F0874FF41651016000213B
:102AF0008180C18001810C21418100218181704749
:102B000010B502460020108A4FF2FF0318400B88D0
:102B10004C8823438C882343CC882343184310825A
:102B200010BD0021018041808180C180704721B1AA
:102B3000828942F40052828104E082894DF6FF735B
:102B40001A4082817047F0B5034600240026002514
:102B5000002040F66A17B94200D100BF1846C1F301
:102B6000421401F01F06012707FA06F5012C01D1D6
:102B70000C3004E0022C01D1103000E014301AB106
:102B800007682F43076002E00768AF430760F0BDA6
:102B90001AB1838A0B43838202E0838A8B43838248
:102BA0007047028A4FF6F0731A400282028A0A4383
:102BB0000282704782894FF2FF731A4082818289B4
:102BC0000A438281704721B1828942F002028281E8
:102BD00004E082894FF6FD731A4082817047028AB1
:102BE0004FF6DF731A400282028A0A43028270475C
:102BF00021B1028A42F48042028204E0028A4BF64A
:102C0000FF731A4002827047C1F308028280704746
:102C100001468888C0F308007047818941F00101AE
:102C200081817047028BD2B20283028B42EA012279
:102C300002837047028B02F47F420283028B0A43B5
:102C40000283704721B1828A42F02002828204E02E
:102C5000828A4FF6DF731A408282704721B1828ADE
:102C600042F01002828204E0828A4FF6EF731A402B
:102C70008282704721B1828A42F00802828204E097
:102C8000828A4FF6F7731A408282704721B1828997
:102C900042F40042828103E08289C2F30E02828103
:102CA000704721B1828A42F40062828204E0828A03
:102CB0004FF2FF731A4082827047828A4FF6FB738D
:102CC0001A408282828A0A438282704721B1828AB4
:102CD00042F00202828204E0828A4FF6FD731A40BB
:102CE0008282704702460020B1F5007F00D100BF0C
:102CF00013880B400BB1012000E00020704701F465
:102D00000072B2F5007F00D100BFCA430280704755
:102D100070B50246002400230025002040F66A1604
:102D2000B14200D100BFC1F3421501F01F030126DB
:102D300006FA03F3012D02D19689334006E0022DF5
:102D400002D1168A334001E0968A33400C120126E4
:102D500006FA04F41688344013B10CB1012000E0E7
:102D6000002070BD10B50022002340F66A14A14275
:102D700000D100BF0A1201249440A3B2DC430480B6
:102D800010BD0000003801400044004000480040F1
:102D9000004C00400050004042F2107000F05AF821
:102DA00000F05AF900202249487100F05FF800F065
:102DB000E9F800F09CF800F07CF800F0F9F800F079
:102DC00068F800F0C8F801F00DF801F0F5F900F02E
:102DD00032FA42F2107000F03DF800F0CBF942F206
:102DE000107000F037F800F0B1FA42F2107000F005
:102DF00031F800F0D7FE42F2107000F02BF800F02E
:102E000044FA42F2107000F025F800F0C2FF01F021
:102E100014F90BE000F045F901F053FA01F02EF837
:102E200001F04FF801F03AFA00F093F9F2E70000F0
:102E300046010020012005494870704710B500F098
:102E40006CFB80210248FFF79FFD10BD3801002078
:102E5000002C014042F2107105E001E04A1E91B2DF
:102E60000029FBD1401E0028F7D1704708B5012189
:102E70001C20FEF71BFE0420ADF8000010208DF88A
:102E8000030003208DF8020069466748FEF752FBF5
:102E900008BD08B54FF46040ADF8000004208DF87F
:102EA000030003208DF8020069466048FEF742FBEC
:102EB00008BD08B54FF48050ADF8000018208DF81B
:102EC000030003208DF8020069465948FEF732FBE3
:102ED0004FF40060ADF8000048208DF80300032097
:102EE0008DF8020069465248FEF724FB08BD08B57C
:102EF0004FF48060ADF8000018208DF80300032027
:102F00008DF8020069464848FEF714FB4FF4006054
:102F1000ADF8000004208DF8030003208DF80200B6
:102F200069464148FEF706FB08BD08B56846FEF74E
:102F30008CFB01210803FEF7CEFBE020ADF800007A
:102F400004208DF8030003208DF8020069463648FE
:102F5000FEF7F0FA08BD08B56846FEF776FB0121DA
:102F60000803FEF7B8FB4FF44070ADF800001820DE
:102F70008DF8030003208DF8020069462A48FEF709
:102F8000D9FA08BD08B50F20ADF8000000208DF873
:102F9000030069462648FEF7CDFA0120ADF800008F
:102FA00000208DF8030069461F48FEF7C3FA08BDEC
:102FB00008B501211F48FEF78EFB4FF4E060ADF825
:102FC000000018208DF8030003208DF802006946E8
:102FD0001748FEF7AFFA4FF46040ADF80000182034
:102FE0008DF8030003208DF8020069460E48FEF7B5
:102FF000A1FA4FF48050ADF8000048208DF803008E
:1030000069460948FEF796FA08BD07480C30006883
:1030100000F0040008B9002100E0102104208840DD
:103020000149103108607047000C01400010014058
:1030300000080140C000160010B5002807DA0A0792
:10304000140E484A00F00F031B1FD45403E00A0774
:10305000130E454A135410BD10B54448006864214E
:10306000B0FBF1F4B4F1807F01D3012011E024F032
:103070007F40401E4FF0E02148610F214FF0FF30AC
:10308000FFF7DAFF00204FF0E02188610720086198
:10309000002008B100BFFEE70021481EFFF7CCFF6B
:1030A00010BD10B53248407801280FD100203049BA
:1030B0004870012088700846C078401CC0B2C870B3
:1030C0000A2803DB0020C870012008712848007915
:1030D00001280BD126484079401CC0B224494871D0
:1030E000052803DB00204871012088712048807981
:1030F00001280BD11E48C079401CC0B21C49C871C0
:10310000022803DB0020C871012008721848007AE9
:1031100001280DD1FFF779FF1548407A401CC0B255
:10312000134948720A2803DB002048720120887284
:103130000F48807A01280BD10D48C07A401CC0B2DC
:103140000B49C872062803DB0020C87201200873EF
:1031500010BD0020064988700871887108720873D4
:103160007047000018ED00E000E400E000000020DF
:103170003801002000B585B001214802FEF796FC19
:103180006D48FDF72DF96846FDF774F900200090B1
:1031900001208DF804008DF805004FF460200290A6
:1031A0000020039005208DF8100069466248FDF765
:1031B0003EF94FF48040FEF7DDFB01231A46002163
:1031C0005D48FDF7CCF90123022219465A48FDF764
:1031D000C6F90123032202215748FDF7C0F9012354
:1031E000042203215448FDF7BAF9012305220821DE
:1031F0005148FDF7B4F901214F48FDF744F9012189
:103200004D48FDF74BF94C48FDF75FF900BF4A48C0
:10321000FDF760F90028FAD14748FDF765F900BFCE
:103220004548FDF766F90028FAD101214248FDF72B
:103230006AF905B000BD00B58BB001210846FEF764
:1032400028FC3E48FDF7ECFF3B484C3000903C48E2
:10325000019000200290052003900020049080201F
:103260000590400006908000079020200890000202
:10327000099000200A9069463048FEF773F8012152
:103280002E48FEF79AF80BB000BD10B510202D495E
:10329000087021E02C4840692949098808442A49D6
:1032A00048610846C0692649498808442649C861DA
:1032B000084680692249898808442349886142F286
:1032C0001070FFF7C7FD42F21070FFF7C3FD1D48F5
:1032D0000078401E1B4908701A4800780028D9D190
:1032E000194840690011184948610846C069001131
:1032F000C861084680690011886110BD10480088C7
:1033000011494969401A40000F4908600C4840883B
:10331000C969401A40000C49886009488088896959
:10332000401A4000084948600548C08808610448C0
:103330000089C86070470000002401400800024076
:1033400064020020FC000020B800002000B58DB011
:103350000121C802FEF7AAFB0020ADF828002020BA
:10336000ADF82A004FF43460ADF82C000020ADF821
:103370002E008DF830000AA97148FEF7CFFC6020BE
:10338000ADF818000120ADF81A000420ADF81C00BB
:103390004FF47A70ADF81E000020ADF82000ADF8B3
:1033A0002200ADF82400ADF8260006A96448FEF717
:1033B000F2FC4FF47A70ADF81E0006A96048FEF7E3
:1033C0002CFD4FF47A70ADF81E0006A95C48FEF79C
:1033D00071FD08215A48FFF72DF908215848FFF7D9
:1033E00032F908215648FFF73BF94FF40060ADF879
:1033F00008004010ADF80A008010ADF80C00402025
:10340000ADF80E008001ADF810000020ADF81200FC
:10341000ADF8140002A94A48FEF79CFF80214848F5
:10342000FFF7B2FA012280214548FEF7EEFF0121A5
:103430004348FFF795FA01214148FFF7A5FA012219
:1034400011463F48FEF7E1FF01213D48FEF7C2FF6C
:1034500001213B48FEF7CAFF4FF4A060FCF752FF82
:1034600018208DF8040000208DF805008DF8060066
:1034700001208DF8070001A8FCF749FF19208DF8FD
:10348000040001208DF8050000208DF806000120C1
:103490008DF8070001A8FCF73AFF0DB000BD2948E0
:1034A00080684FF4B461484301EBE03000B2264934
:1034B00008802448C0684FF4B461484301EBE03011
:1034C00000B2214948801F4800694FF4B461484365
:1034D00001EBE03000B21C4988800846008818499A
:1034E0003431088018484088091D088016488088B3
:1034F000091D088070470020114934310880091DDA
:103500000880091D08800E482030008845F255517A
:1035100008430B492031088070474FF43460084954
:1035200034310880091D0880091D088004482030B6
:1035300000884AF6AA2108400149203108807047D6
:10354000002C01409C010020FE00002010B501214C
:10355000B648FFF705FAB6480078401CB449087031
:1035600008460078192848D10020087000F0DDFDD9
:1035700000F080FBAF484068C0F3CF00AE49C8827E
:10358000AE484068C0F3CF008882AD48C068C0F341
:10359000CF004883AA480069C0F3CF000883A94838
:1035A00080894882A74800880882A7484068C0F3FD
:1035B000CF000884A4480068C0F3CF00C883A348A4
:1035C000007A012803D0A148007A022815D1A0482A
:1035D000008A9D494860084600F0B8FB9A48C068D8
:1035E0009C49098848438112974880689A4A128802
:1035F000504301EBA0209449C860FFF77FFE91483B
:103600004068964908608F4880684860084600F026
:1036100092FA9248C06892490860904800694860F0
:103620008A48007A002847D087480088C0EB0010FD
:103630008C4908808C4800880988884204DB8A48C5
:1036400000880C388849088087480088854909889F
:10365000884204DC844800880C3083490880824812
:10366000008880490988401A05D47F4800887D4930
:103670000988401A05E07C48008840427949098859
:10368000401A082803DC7748008877490880774883
:10369000C06875490988084474490861084600698A
:1036A000B0F5803F04DB08460069A0F58030086172
:1036B0006E4800696E4908606D4800F0E3F86C4898
:1036C0004068674948616A4880688861084600F038
:1036D0003EFA0020574908605B48C06857490860B7
:1036E0005F48C06853494860084600F02FFB5148C6
:1036F000C06858490988484381124E488068564A34
:103700001288504301EBA0204A49C8605448006920
:103710004A494860084600F019FB4848C0684D49CE
:10372000098848438112454880684B4A12885043B3
:1037300001EBA0204149C8604448007A01281BD110
:103740003C48C0683E49C8603F48006800EB400103
:1037500001EB00103A4908613D48008AB0F5967FB8
:1037600002DD0220394908723748006800EB400149
:1037700001EB0010344948623448007A02280CD129
:103780002C48C0682E49C8602F48C0682E49096877
:10379000102202FB01002A4908612C48007A032804
:1037A00006D12448C0682649C8602448C06808611A
:1037B0002F484068224948612D4880688861084642
:1037C00000F0DAF92548C0682A4988622348006970
:1037D00048632948006808602748406888610846AF
:1037E00000F0DCFB23484068404220490860214843
:1037F000C0694860084600F098F8114800681E4902
:1038000008600F4840684860084600F03FF9FFF73D
:1038100046FE1A4801881A48FFF778F81348C0682E
:10382000C0F34F111648FFF773F810BD002C01408C
:1038300038010020580000201001002088000020DE
:1038400080010020B8000020280000204601002050
:1038500034020020080100200A010020500100204D
:103860006401002006010020040100205002002015
:10387000C0010020CC0100209C010020FE0000209F
:103880000008004001460A8890B2801100F440729E
:103890004AB1B2F5807F12D0B2F5007F1CD0B2F5EC
:1038A000407F34D126E0C2B2764B33F912204A6011
:1038B000C2B2C2F1FF0233F912208A6028E0C2B21C
:1038C000C2F1FF026F4B33F912204A60C2B233F9E2
:1038D000122052428A601BE0C2B26A4B33F91220B6
:1038E00052424A60C2B2C2F1FF0233F91220524280
:1038F0008A600DE0C2B2C2F1FF02624B33F91220BE
:1039000052424A60C2B233F912208A6000E000BF1E
:1039100000BF70470346934201DC104604E08B422F
:1039200001DB084600E0184670470021026822B912
:10393000426802B965E0FF2163E00268002A01DB0A
:10394000026801E002685242D3034268002A01DBA8
:10395000426801E04268524293FBF2F282604A4BB5
:1039600001F1800253F8222083689A4202DC01F1BF
:10397000800211B2444B01F1400253F822208368C7
:103980009A4202DC01F1400211B23F4B01F12002E8
:1039900053F8222083689A4202DC01F1200211B21E
:1039A000394B01F1100253F8222083689A4202DC5D
:1039B00001F1100211B2344B01F1080253F8222038
:1039C00083689A4202DC01F1080211B22E4B0A1DF3
:1039D00053F8222083689A4201DC0A1D11B22A4B57
:1039E0008A1C53F8222083689A4201DC8A1C11B297
:1039F000254B4A1C53F8222083689A4201DC4A1C5A
:103A000011B20268002A08DD4268002A01DDC160A7
:103A10000DE0C1F50072C26009E04268002A03DDD2
:103A2000C1F58062C26002E001F50072C260C26846
:103A3000002A03DAC26802F58062C260C26892019D
:103A4000C260704730B503460BB9002030BD00217D
:103A50009A0F9B00012A01D9491C521A0F240DE02C
:103A60004900920002EB93720D46012000EB4505E0
:103A70009B00AA4201D3521B491C641E002CEFD1AB
:103A80000846E3E7D44E0008D4500008416841617D
:103A900041684A1046F6D9630168594302EBE131A7
:103AA0008161D0E90521891AC161032101848169FD
:103AB000002902DD018C491E00E0018C0184C169EE
:103AC000002902DD018C491E00E0018C018441695E
:103AD000002903DA018CC1F1070100E0018C0184A7
:103AE000018C012902D0018C042909D181698160EE
:103AF000C2694169891AC16081694942016119E05D
:103B0000018C022902D0018C052909D1D0E90621B6
:103B1000114481604169C16041694942016109E024
:103B2000C1698160C1694942C160D0E9051211448F
:103B30004942016170470168C160D0E9001201EBA0
:103B4000420144F6E6125143C9130161704782698C
:103B500001685143CA1343694168594302EBE1319B
:103B6000C160826941685143CA134369016859437E
:103B7000A2EBE131016170478269C1685143CA1308
:103B8000D0E904135943A2EBE13101608269016974
:103B90005143CA134369C168594302EBE1314160A3
:103BA0007047000000B587B001210420FDF78BFFAE
:103BB0002E48006844F25061B0FBF1F0401E80B224
:103BC000ADF814000020ADF81000ADF81600ADF807
:103BD000120004A92648FEF7A1F86020ADF8000005
:103BE0000120ADF802006420ADF806000020ADF819
:103BF000080069461E48FEF7CEF808211C48FEF76B
:103C000019FD0120ADF802006420ADF806006946F8
:103C10001748FEF702F908211548FEF714FD0120A8
:103C2000ADF802006420ADF8060069461048FEF7C2
:103C300041F908210E48FEF713FD0120ADF80200FE
:103C40006420ADF8060069460948FEF77EF90821B0
:103C50000748FEF70EFD01210548FEF7BBFC0121D8
:103C60000348FEF7B7FB07B000BD000000000020CE
:103C70000008004010B52D480069C82826DC002047
:103C80002B4988700872C8802A49486008602A4910
:103C900008602A4908602A490861086125490862C4
:103CA00048628862C8628860C860234908624862C6
:103CB0008862C86288602149086248628862C86276
:103CC0008860204908802049088010E001201849B8
:103CD0008870164800694010164908600846006858
:103CE00040F2DC51884202DB084612490860104865
:103CF000C07848B90E488078012805D1FFF7FBFB52
:103D000001200B4908720CE00948C078012803D152
:103D100007488078012804D0FFF7FFFB0020044902
:103D20000872034880780249C87010BDB8000020AE
:103D300046010020280000205800002088000020B4
:103D400080010020040100200601002010B5044677
:103D5000D4E90001401A2062A16AA068884206D115
:103D6000216A60694843E16A01EBE03000E0E06A03
:103D70006062606AE062216A20694843616A01EB1F
:103D8000E030A062D4E90612A06AFFF7C3FDA0608C
:103D900010BD44F25060104908614FF482704861D0
:103DA0004FF4FA6088610020C86116200B49086151
:103DB0004FF45C70486141F2883088614042C861CC
:103DC00040F6782006490861EC20486147F23050FF
:103DD00088610020C861704728000020580000203A
:103DE0008800002000B585B001218804FDF76BFE36
:103DF00027208DF8000001208DF801008DF80200C9
:103E00008DF803006846FCF782FA6048FEF7C0FDB3
:103E10004FF4165001900020ADF80800ADF80A00EC
:103E2000ADF80C00ADF810000C20ADF80E0001A9A3
:103E30005648FEF7F0FD012240F225515348FEF7A7
:103E400082FE01215148FEF772FE05B000BD70B53B
:103E500004460D464D48008800BF21784B48FEF7C8
:103E6000D3FE00BF4948008800F040000028F9D088
:103E7000641C681EC5B2002DEFD170BD10B544485A
:103E8000007A01281CD1AA20424908700846408ABD
:103E9000001248700846807C88700846C08B00126B
:103EA000C8700846807F08713B48407948713A489D
:103EB000007A8871CC20C87108213648FFF7C7FF07
:103EC00010BD0020334991F8221001290DD10021A5
:103ED000304A82F8221000BF05E02E4908310A5C02
:103EE0000A54411CC8B20828F7DB704710B52021DE
:103EF0002648FEF7F7FE28B908212448FEF7F2FE0F
:103F0000002842D008212148FEF7ECFE30B11F48BE
:103F1000FEF77EFE08211D48FEF7F1FE1D4890F8D1
:103F200024001C4981F82500084690F8250091F8E6
:103F30002610401A174981F82700084690F82500F6
:103F400081F82600084690F82700032802DB0020AD
:103F500081F823000D48FEF75BFEC1B20D4890F8D2
:103F6000232008308154083890F82300401C094968
:103F700081F82300084690F82300082805DB01207B
:103F800081F82200002081F8230010BD0048004085
:103F900038010020100100204601002010B5044621
:103FA000D4E904104843C113D4E90002801AA2687E
:103FB000801AE268504301EBE0302061616A606979
:103FC0004843C113D4E90602801A226A801AE268C3
:103FD000504301EBE0306062A16A2069401AE06260
:103FE000616B606A401AA063236C5A421946E06A0A
:103FF000FFF790FC216B49004843C013A060236C7D
:104000005A421946A06BFFF785FC216B49004843D3
:10401000C0132062D4E90110401AE16B4843616883
:1040200001EBE0306060D4E90710401AE16B4843CF
:10403000E16901EBE030E06110BD2DE9F047554842
:104040005549086055484860554888605548C860DB
:104050005548086104204861872088610846006847
:1040600080F0004A08464168504600F003FA814655
:1040700049480169484600F0CBF9044600F051FA7E
:10408000074600F0E5FD054600F05EFA4249C861CA
:104090000846C1694FF07E5000F0B4F905463E482D
:1040A00001684FF07E5000F0E5F906463A4A916803
:1040B000D06800F0DFF90746314600F0A9F9044660
:1040C000294600F0A5F934490862C8694FF08E41CD
:1040D00000F09EF9044600F00BFA344948612E497D
:1040E000086A4FF08E4100F093F9044600F000FAA0
:1040F0002E49C8604FF4FA60086341F28830C86303
:1041000047F69E70086440F263102949088340F224
:104110009D2048832048406940004EF66021B1FB55
:10412000F0F023494861BDE8F08722480069204942
:104130008860084680684968401A1D49086008463A
:104140000068002804DA0846006800F5803008603E
:104150001748408B1649C968484381121448008BA0
:10416000134A1268504301EBA0201149C860084669
:10417000006849694843000C0D4908820846008AD6
:10418000B0F5FA6F01DB0020088209488068084911
:1041900048607047D9CEF73D100200203815293B02
:1041A0000000C04000006041ACC5A738CC01002031
:1041B000340200205002002000B589B014208DF890
:1041C000040001208DF8050002208DF80600012072
:1041D0008DF8070001A8FCF79AF801214806FDF7C1
:1041E00072FC5A48FCF724FB06A8FCF745FC0020AB
:1041F0008DF81E008DF81F008DF820008DF821002D
:104200008DF822008DF823008DF81A008DF81B0020
:104210000E208DF81C0007208DF81D000620ADF83B
:10422000180006A94948FCF71CFB00208DF8120075
:104230008DF8130001208DF8140045480068C0F384
:104240004F30ADF8080042480088042101EBC0005F
:1042500080B2ADF80A004FF6FF70ADF80C00C01F39
:10426000ADF80E000020ADF8100001208DF815000B
:1042700002A8FCF780FB00203649086034484068FB
:1042800048600020487204200872082088720122C9
:1042900002212E48FCF76EFE09B000BD00202C491B
:1042A000097E01290CD10021294A117600BF05E0C1
:1042B000274910310A5C0A54411CC8B20828F7DBB0
:1042C000704710B500242448007A012821D1AA2083
:1042D0001F4908721F211E484172122181723F211D
:1042E000C172652101734021417318218173FF213F
:1042F000C17300BF07E016480830015D15480B3058
:104300000155601CC4B2082CF5DB12490F48FCF7BC
:1043100021FC10BD10B5002400210C48FCF792FDD3
:1043200098B10E4A00210948FCF709FD012008490F
:10433000087600BF07E009480B30015D04481030E3
:104340000155601CC4B2082CF5DB10BD00640040B0
:10435000E0000020700200203801002084020020CC
:10436000F0B480EA0102D40F4200B2EB410F02D256
:104370000246084611464A0042D0C30DDDB2C1F3E1
:10438000C752AD1A202D35DAC1F3160141F40002EF
:1043900004B15242C5F1200602FA06F12A41104446
:1043A000B3EBD05F23D0C4B1012DA0EBC35009DC27
:1043B000F0BC4FF0004202EAC352DBB200F500004D
:1043C00000F0E7B8400000F1807000EBC350A0F1AE
:1043D000807040EAD170490009E0490841EAC071A3
:1043E000A0EBC35000F50000400800EBC350F0BC48
:1043F00000F0C6B86142012202EB4101001BF6E762
:10440000F0BC704781F00041AAE780F00040A7E7C8
:1044100080EA010210B502F00043400022D04A00B9
:104420001FD0010E01EB1261C0F35600C2F3560219
:1044300040F4000042F40002A0FB022000047F3997
:10444000140400D0401C50EA124001D44000491E20
:10445000C2B20C0604EBD010401C4008802A02D0E7
:1044600003E0002010BD20F00100002900DA002048
:10447000184310BD30B480EA010202F0004530F06C
:10448000004221F0004013D090B1C30DD40DC2F30F
:104490001601C0F31600E41A41F4000140F40002D2
:1044A0007D34914201D3641C00E04900002C02DA03
:1044B00030BC002070474FF400000023914201D32C
:1044C000891A034340084FEA4101F7D151B19142A3
:1044D00002D14FF0004105E002D24FF0010101E0AE
:1044E0006FF0010103EBC450284430BC00F048B821
:1044F00000F0004220F00040C10DC0F3160040F46F
:1045000000007F2901DA00207047962903DCC1F101
:104510009601C84001E096398840002AF4D0404214
:10452000704700F0004230F000400AD0C10D01F5A4
:104530006071C0F3160042EA0151C20840071143FE
:10454000704700200146704701F0004330B421F06D
:10455000004150EA010206D00A0DA2F56072C1F3D3
:104560001301002A02DC30BC00207047440F44EAEB
:10457000C104C100E01830BC00EBC250AFF30080B2
:104580000029A8BF7047401C490008BF20F0010067
:10459000704710B4B0FA80FC00FA0CF050EA010445
:1045A00004BF10BC704749B1CCF1200421FA04F4D7
:1045B00011FA0CF118BF012121430843A3EB0C01B0
:1045C000CB1D4FEA00614FEA102042BF002010BC13
:1045D000704700EBC35010440029A4BF10BC7047C3
:1045E000401C490008BF20F0010010BC70472DE9B5
:1045F000FE4F804681EA0300C00F0C46009021F078
:10460000004123F00045B8EB0200A94105D2404625
:10461000214690461C460B46024623F000401043BC
:1046200047D0270DC7F30A00C3F30A510290401A7E
:10463000019040286BDAC3F3130040F4801B00980C
:10464000924620B10023D2EB030A63EB0B0B0198D7
:104650005946C0F14002504600F0DAF906460D46D0
:1046600050465946019A00F0F2F910EB08006141FA
:10467000002487EA115284EAE7731A4340D0009A73
:1046800062B3019A012A4FEA075215DC001B61EB65
:1046900002014FF0004202EA0752CDE90042001C3D
:1046A00041F5801132462B4600F0F2F903B0BDE827
:1046B000F08F40462146F9E7001B61EB0201001C28
:1046C00041F5801300185B412018A2F5001747EB55
:1046D000030140EAD570B6196D4111E06D084FEA4B
:1046E000360645EAC0754FEA0752001B61EB02012E
:1046F000001C41F5801149084FEA30000019514172
:1047000032462B4603B0BDE8F04F00F0B2B9009836
:10471000012240000023D0EB020263EBE07300981B
:1047200021464FEAE074B8EB000061EB0401E9E7D1
:1047300083F000435BE781F0004158E72DE9FE4F2D
:1047400081EA030404F0004421F0004100944FF09A
:10475000000B23F0004350EA01045ED052EA030448
:104760005BD0C3F30A54C1F30A552C44A4F2F334CA
:104770000194A0FB0254C1F3130141F48011C3F36F
:10478000130343F4801301FB024400FB034E840A2D
:10479000970A44EA815447EA8357A4FB07680295C5
:1047A0008D0A05FB07854FEA932C04FB0C54270563
:1047B000029D4FEA065847EA1637B5EB08056EEB3F
:1047C000070C870E920E47EA811742EA8312A7FB75
:1047D0000201B6EB0B0164EB00042B0D43EA0C3332
:1047E0005E1844EB1C50DA465146E7FB0201C5F364
:1047F00013044FEA0B3343EA14534FEA0432019C8B
:1048000043EA0603A4F10C040294009CCDE900B431
:1048100000F03EF903B0BDE8F08F00200146F9E753
:104820002DE9F04D81EA030404F0004B21F000452E
:1048300014464FF0000A23F0004150EA050220D050
:1048400054EA01021DD0C5F30A570246C5F313030B
:10485000C1F31300C1F30A5640F4801543F48013EA
:10486000A7EB0608101BD64608F2FD3873EB0500CF
:1048700002D308F1010801E092185B41B8F1000F82
:1048800003DA00200146BDE8F08D00204FF48011CE
:10489000064684460EE0171B73EB050705D3121B73
:1048A00063EB050306434CEA010C49084FEA30006C
:1048B00092185B4150EA0107EDD152EA030012D091
:1048C00082EA040083EA0501084305D0101BAB41CE
:1048D00006D20122002306E000224FF0004302E04E
:1048E0006FF0010253101AEB06004CEB085110EB6D
:1048F0000A0041EB0B01BDE8F04D00F0BAB870B50D
:1049000021F0004303430CD0C1F30A550024D5EB3A
:10491000040564EB0403D617AD1AB34102DB002093
:10492000014670BD201841EB025170BD0EB5C10F9C
:1049300080EAE0700844CA07002140F233438DE862
:104940000E000A460B4600F0A3F803B000BD70B598
:10495000C1F30A5201F000450024C1F3130140F2F3
:10496000FF3341F480119A4201DA002070BD40F219
:1049700033439A42A2F2334203DC524200F057F82A
:1049800000E090402C43F1D0404270BD30B5041E91
:1049900071F1000404DB4FF00044404264EB01017C
:1049A000141E73F1000405DB1C464FF00043524215
:1049B00063EB04038B4208BF824230BD30B5041E56
:1049C00071F1000404DB4FF00044404264EB01014C
:1049D000141E73F1000405DB1C464FF000435242E5
:1049E00063EB0403994208BF904230BD064C074D6B
:1049F00006E0E06840F0010394E8070098471034AF
:104A0000AC42F6D3FBF776FB305500085055000852
:104A1000202A04DB203A00FA02F10020704791407E
:104A2000C2F1200320FA03F3194390407047202A73
:104A300004DB203A21FA02F00021704721FA02F348
:104A4000D040C2F120029140084319467047202A05
:104A500006DBCB17203A41FA02F043EAE07306E0A6
:104A600041FA02F3D040C2F12002914008431946B6
:104A7000704710B5141E73F1000408DA401C41F1B0
:104A8000000192185B411A4301D120F0010010BDD2
:104A90002DE9F04D92469B4611B1B1FA81F202E048
:104AA000B0FA80F220329046FFF7B2FF04460F467C
:104AB00040EA0A0041EA0B0153465A46084313D024
:104AC000114653EA010019D0C8F140025046FFF7E1
:104AD000AEFF05460E46504659464246FFF798FF40
:104AE000084305D0012004E020463946BDE8F08D9A
:104AF0000020054346EAE0762C4337430A986305D5
:104B0000E40AA0EB08000022FD0A44EA47540A30F8
:104B100002D500200146E9E7010510196941DDE9E8
:104B2000084500196941BDE8F04DA2E7490050EA87
:104B3000C12018BF04204A0D18BF40F0010040F208
:104B4000FF72B2EB515F08BF40F00200012808BFBE
:104B5000052070472DE9F0414F1E00EBC7010446C8
:104B6000D1E9000115461E4637F006020DD02A464F
:104B70003346FFF7E3FD7F1E04EBC703D3E90023B1
:104B8000FFF735FD37F00602F1D1022F25D0042FB3
:104B900013D0062F18BFBDE8F0812A463346FFF731
:104BA000CDFDD4E90A23FFF722FD2A463346FFF75D
:104BB000C5FDD4E90823FFF71AFD2A463346FFF75F
:104BC000BDFDD4E90623FFF712FD2A463346FFF761
:104BD000B5FDD4E90423FFF70AFD2A463346FFF763
:104BE000ADFDD4E90223FFF702FD2A463346FFF765
:104BF000A5FDD4E90023BDE8F041FFF7F8BC012290
:104C0000FFF77DBE40F2013200204FF0E041FFF798
:104C100076BE0000024A00201107FFF770BE0000B8
:104C200001FDFFFF02E008C8121F08C1002AFAD1E7
:104C300070477047002001E001C1121F002AFBD11C
:104C40007047000001490860704700000C01002017
:104C50002DE9F04D894BCE0F21F0004784B0054679
:104C60000C469F4230D38648874211D3C7F31300C6
:104C7000284305D004B02846BDE8F04DFFF7BFBF7C
:104C8000002E1ABF00200146284604B0BDE8F08D72
:104C90007C4A2846FFF792FE07D20220FFF7D2FF98
:104CA00004B0BDE8F04DFFF7ADBF774A774B28461B
:104CB0002146FFF76BFE07D20220FFF7C3FF04B0C7
:104CC000BDE8F04DFFF7A6BF7148B84248D2714821
:104CD000874215D27048784400EBC6002146D0E9DF
:104CE00000232846FFF724FDCDE900016B487844F6
:104CF00000EBC600D0E900ABC6F10100861B26E040
:104D0000674A684B28462146FFF718FD664A7A44F1
:104D100002EBC603D3E90023FFF769FCFFF717FE98
:104D20000646FFF703FE07468846604A604BFFF7DA
:104D300005FD2A462346FFF7FEFCCDE900015D4A4A
:104D40005D4B38464146FFF7F9FC82468B46DDE96C
:104D5000000152465B46FFF7EBFC05460C4618E0A7
:104D60005648874214D2564A564B28462146FFF7EA
:104D70003EFC554E00223346FFF720FE08D204B019
:104D8000334628462146BDE8F04D0022FFF72FBCF0
:104D900000262A46234610461946FFF7CFFC8046D8
:104DA00002464A480F460B4605217844FFF7D2FEDB
:104DB00042463B46FFF7C2FC2A462346FFF7BBFCB0
:104DC00007468846E6B302460B4600204FF0804176
:104DD000FFF7AEFCCDE902013A464346284621469C
:104DE000FFF7ACFCDDE90223FFF71AFD52465B46F4
:104DF000FFF7A1FCDDE90023FFF79AFC0022324B0C
:104E0000FFF799FC6FF47F729642A2BF01EB065147
:104E100004B0BDE8F08D4FF07A5202EB0652114417
:104E20002B4AFFF76CFD04460D46FFF77FFE042872
:104E300008BFFFF7EFFE204604B02946BDE8F08D1D
:104E4000FFE700224FF08043FFF772FC82460E46D8
:104E50003A46434628462146FFF770FC5246334601
:104E6000FFF7DEFC2A462346FFF762FC04B000226F
:104E7000BDE8F04D144BFFF75EBC0000422E8640AB
:104E80000000F07FEF39FAFE51302DD5104987C070
:104E9000422ED63FB2A2F03F0E08000006080000E6
:104EA000FE822B654715F73FC60700000000E0FEB5
:104EB000422EE63F763C7935EF39EA3D0000303E40
:104EC0009C7500883CE4377E0000F03F5A070000E4
:104ED00018FCFFFF0000C90092015B022403ED03F0
:104EE000B6047F0548061107D907A2086A09330AE4
:104EF000FB0AC40B8C0C540D1C0EE30EAB0F72108E
:104F00003A110112C8128F1355141C15E215A81678
:104F10006E173318F918BE19821A471B0B1CCF1CC9
:104F2000931D571E1A1FDD1F9F2061212322E5229A
:104F3000A62367242825E825A82667272628E5280C
:104F4000A329612A1F2BDC2B992C552D112ECC2E39
:104F5000872F4130FB30B5316E322633DF33963444
:104F60004D350436BA366F372438D9388C39403A43
:104F7000F23AA53B563C073DB83D683E173FC53F5A
:104F800073402141CE417A422543D0437A4424459F
:104F9000CD4575461C47C34769480F49B449584A2F
:104FA000FB4A9D4B3F4CE04C814D204EBF4E5D4F28
:104FB000FB4F97503351CE51685202539B5332549A
:104FC000C9546055F5558A561D57B0574258D358A5
:104FD0006459F359825A0F5B9C5B285CB35C3E5D5D
:104FE000C75D4F5ED75E5D5FE35F6860EB606E61DB
:104FF000F0617162F1627063EE636C64E864636532
:10500000DD655666CF664667BC673268A668196973
:105010008B69FD696D6ADC6A4A6BB76B236C8E6CB9
:10502000F86C616DC96D306E966EFB6E5E6FC16F10
:1050300022708370E27040719D71F9715472AE728A
:1050400007735E73B5730A745F74B2740475557533
:10505000A575F37541768D76D87622776B77B37721
:10506000FA773F788478C77809794A798979C87955
:10507000057A417A7C7AB67AEE7A267B5C7B917BE4
:10508000C57BF87B297C597C887CB67CE37C0E7DD3
:10509000397D627D897DB07DD57DFA7D1D7E3E7E28
:1050A0005F7E7E7E9C7EB97ED57EEF7E097F217FEE
:1050B000377F4D7F617F747F867F977FA67FB47F28
:1050C000C17FCD7FD87FE17FE97FF07FF57FF97FDA
:1050D000FD7FFE7F00000000C9000000920100007B
:1050E0005B02000024030000ED030000B604000092
:1050F000800500004906000012070000A708000014
:10510000710900003B0A0000050B0000D00B0000F5
:105110009B0C0000660D0000310E0000FD0E00002B
:10512000C90F000095100000621100001812000065
:105130002F120000FC120000CA1300009814000097
:10514000661500003516000005170000D417000092
:10515000A518000075190000471A0000191B00006F
:10516000EB1B0000BE1C0000911D0000651E00002E
:105170003A1F00000F200000E5200000BC210000C5
:10518000942200006C230000442400001E2500002F
:10519000F8250000D4260000B02700008C2800006D
:1051A0006A290000492A0000282B0000082C000072
:1051B000EA2C0000CC2D0000AF2E0000942F000040
:1051C00079300000603100004732000030330000C9
:1051D000193400000935000071350000DE3600008A
:1051E000CD370000BD380000AE390000A03A000005
:1051F000943B00008A3C0000803D0000793E0000A6
:10520000723F00006E4000006A41000069420000E9
:10521000694300006A4400006E45000073460000C8
:105220007A470000824800008D490000994A00003A
:10523000A84B0000B84C0000CA4D0000DF4E000033
:10524000F54F00000E5100002852000045530000A9
:105250006554000086550000AA560000D157000092
:10526000FA580000255A0000535B0000845C0000DF
:10527000B85D0000EE5E0000276000006361000082
:10528000A2620000E463000029650000716600006E
:10529000BD6700000C6900005E6A0000B36B00008F
:1052A0000D6D0000696E0000CA6F00002E710000D5
:1052B000967200000374000073750000E77600002A
:1052C00060780000DD7900005F7B0000E57C000075
:1052D000707E000000800000948100002E8300009A
:1052E000CD840000718600001A880000CA89000081
:1052F0007F8B0000398D0000FA8E0000C190000005
:105300008F920000639400003D9600001F980000FB
:10531000089A0000F79B0000EF9D0000EE9F000040
:10532000F5A1000004A400001BA600003BA800009B
:1053300064AA000096AC0000D1AE000016B10000D7
:1053400065B30000BEB5000022B8000091BA0000AD
:105350000BBD000090BF000022C20000C0C40000CE
:105360006AC7000022CA0000E7CC000088CF000016
:105370009DD200008ED500008ED800009FDB00007B
:10538000C0DE0000F3E1000038E500008FE8000017
:10539000FAEB000078EF00000BF30000B4F6000019
:1053A00074FA00004AFE00003902010041060100C3
:1053B000640A0100A20E0100FC1201007417010032
:1053C0000B1C0100032C01009C250100992A0100FF
:1053D000BC2F010004350100763A010012400100A3
:1053E000DB450100D34B0100FD5101005A5801007B
:1053F000EE5E0100BC650100C66C01001174010085
:105400009F7B010076830100988B01000A940100C4
:10541000D29C0100F5A5010078AF010063B901003D
:10542000BBC3010088CE0100D2D90100A3E5010071
:1054300005F2010001FF0100A40C0200FB1A0200AA
:10544000152A0200023A0200D44A02009F5C0200C0
:105450007B6F02007F830200CA9802007CAF0200CB
:10546000BAC70200AEE102008AFD0200841B0300FD
:10547000DF3B0300E75E0300F584030073AE030027
:10548000DDDB0300CB0D0400F4440400368204008D
:10549000A6C604009B130500C96A050063CE05007B
:1054A0004441060040C706008D65070074230800CC
:1054B000810B09007F2D0A0046A20B0038930D00D6
:1054C000D74A1000245E1400CC281B00DABD280047
:1054D0007E7C510000000000000000000000E03F62
:1054E000000000000000E0BF0000E0FE422EE63FAA
:1054F0000000E0FE422EE6BF763C7935EF39EA3D0A
:10550000763C7935EF39EABD3E5555555555C53F81
:1055100093BDBE166CC166BF2CDE25AF6A56113F27
:10552000F16BD2C541BDBBBED0A4BE726937663E29
:10553000505500080000002010010000244C000815
:10554000605600081001002088050000344C000857
:1055500000A24A0400000000000000000102030451
:105560000607080900000000010203040102030409
:1055700006070809020406080000000000000000F9
:10558000000000000000000000000000000000001B
:10559000007D00000000000000000000000000008E
:1055A00000000000000000000000000000000000FB
:1055B00000000000000000000000000000000000EB
:1055C000007D00000000000000000000000000005E
:1055D00000000000000000000000000000000000CB
:1055E00000000000000000000000000000000000BB
:1055F000007D00000000000000000000000000002E
:10560000000000000000000000000000000000009A
:10561000000000000000000000000000000000008A
:1056200000000000000000000C010000F402000077
:105630007001FA187101FA18000000000000000063
:10564000000000000000000000000000000000005A
:1056500000000000000000004801B8020000000047
:04000005080000ED02
:00000001FF
